:1003000020204E545553542049522052582020202A
:10031000202030302D30302D30302D303020202036
:10032000303132333435363738394142434445462B
:02000000803E40
:100040007581701162118C11A711C280FC78320089
:100050000000000000000000D8F5227928114DD9D9
:10006000FC2275D1307A0F115BDAFC75D13175D372
:1000700038115B75D13175D30C115B75D13175D3E6
:1000800001115B75D13175D306115B2275D13175C4
:10009000D380114D7F0090030075D132EF93F5D3DB
:1000A000114D0FBF10F62275D13175D3C0114D7FA0
:1000B0000090031075D132EF93F5D3114D0FBF109F
:1000C000F62275DA0175DA02E5DB30E1FB75D13134
:1000D00075D3C2114D75D13290032075DC00E5DD7A
:1000E000C4540F93F5D3114DE5DD540F93F5D3119F
:1000F0004D75D13175D3C5114D75D1329003207531
:10010000DC01E5DDC4540F93F5D3114DE5DD540F4B
:1001100093F5D3114D75D13175D3C8114D75D132C9
:1001200090032075DC02E5DDC4540F93F5D3114D27
:10013000E5DD540F93F5D3114D75D13175D3CB1146
:100140004D75D13290032075DC03E5DDC4540F9367
:0E015000F5D3114DE5DD540F93F5D3114D227B
:00000001FF
